:20000000ADC0C7C0C6C0C5C0C4C0C3C0C2C025C2C0C0BFC0BEC0BDC0BCC0BBC0EDC0B9C05A
:20002000B8C0B7C0E2C188C1B7C1B3C0B2C0B1C0B0C0AFC0E4C3CBC4D8C4B7C4C4C456C449
:200040004EC440C426C40DC4E6C3303132333435363738394142434445460000070E091C4A
:200060001B1215383F363124232A2D70777E796C6B6265484F464154535A5DE0E7EEE9FC30
:20008000FBF2F5D8DFD6D1C4C3CACD90979E998C8B8285A8AFA6A1B4B3BABDC7C0C9CEDB11
:2000A000DCD5D2FFF8F1F6E3E4EDEAB7B0B9BEABACA5A28F88818693949D9A2720292E3B70
:2000C0003C35321F18111603040D0A5750595E4B4C45426F68616673747D7A898E87809556
:2000E000929B9CB1B6BFB8ADAAA3A4F9FEF7F0E5E2EBECC1C6CFC8DDDAD3D4696E676075B0
:20010000727B7C51565F584D4A4344191E171005020B0C21262F283D3A33344E4940475292
:20012000555C5B7671787F6A6D64633E39303722252C2B0601080F1A1D1413AEA9A0A7B2EF
:20014000B5BCBB9691989F8A8D8483DED9D0D7C2C5CCCBE6E1E8EFFAFDF4F30011241FBEED
:20016000CFEFD4E0DEBFCDBF11E0A0E0B1E0E4E2FEE002C005900D92A632B107D9F711E0F7
:20018000A6E2B1E001C01D92A633B107E1F78CD148C636CF9A01AB0120932F01BB27A52F1D
:2001A000942F832F80933001CA01AA27BB2780933101852F9927AA27BB27809332010895B9
:2001C00080912F0180932A018091300180932B018091310180932C018091320180932D0117
:2001E000089580910E0190910F01892B11F45A9808955A9A089508951F920F920FB60F92E3
:2002000011242F933F938F939F935E9A8BB190E289278BB928B180912A0130912E01831788
:2002200018F121608317E8F0932F981B915080912B018917A0F02260891778F0981B9150E1
:2002400080912C01891738F0246028B9832F8F5F69F481E00BC02B7FF8CF981BF1CF2D7F7A
:20026000EBCF932F981BE3CF2E7FDCCF80932E015E989F918F913F912F910F900FBE0F9022
:200280001F901895089593E094B98FE387B98CEF8AB981E080932E0182E084BD80936E006E
:2002A00095BD8BE087BD08950F931F938091C1008F778093C100A8958091C00087FFFBCF42
:2002C0005F9A8091C600082F1127602F80E091E083D2802F86DF5F98A8958091C00087FF8B
:2002E000EACFEECF809128018111089570932701609326014093280181E0C4DF8091C10008
:2003000080628093C10008956093340191D1F89488E10FB6F89480936000109260000FBE78
:2003200088E190E02EE00FB6F894A895809360000FBE20936000FFCF1F920F920FB60F926F
:2003400011248F939F93EF93FF93909128019150909328019F3F59F0E0912601F091270121
:200360008191F0932701E09326018093C600992351F48091C1008F7D8093C1008091C100C8
:2003800080648093C100FF91EF919F918F910F900FBE0F901F9018951F920F920FB60F9226
:2003A00011242F933F934F935F936F937F938F939F93AF93BF93EF93FF938091C1008F7BB4
:2003C0008093C10080E05EDFFF91EF91BF91AF919F918F917F916F915F914F913F912F914C
:2003E0000F900FBE0F901F9018951F920F920FB60F9211242F933F934F935F936F937F932D
:200400008F939F93AF93BF93CF93DF93EF93FF938091C600C82FDD2780912901882321F043
:2004200081508093290106C06C2F80E091E0D4D18C2FD7DEFF91EF91DF91CF91BF91AF91F7
:200440009F918F917F916F915F914F913F912F910F900FBE0F901F9018951F920F920FB65E
:200460000F9211242F933F934F935F936F937F938F939F93AF93BF93EF93FF93A89580E091
:2004800091E0FFD3B8DEFF91EF91BF91AF919F918F917F916F915F914F913F912F910F9084
:2004A0000FBE0F901F901895CFEFD4E0DEBFCDBFF894E9DEE0910201F0910301828593856E
:2004C000892B71F487E08093B10082E08093B00084EB8093B3008091700082608093700098
:2004E000C2D060E074E981E190E020E034E843E050E03ED4DA01C901019720D0E0910201D9
:20050000F091030184E891E09783868382E791E0958784876091340180E091E0CAD07894B8
:2005200088E190E02EE00FB6F894A895809360000FBE20936000B8DEB7DEFDCF9C01832FAD
:2005400099278093C5002093C40088E98093C10086E08093C2000895982F8091C00085FF53
:20056000FCCF9093C6000895CF93DF93EC018881882351F08991F0DF8881882329F08991A4
:20058000EBDF88818823B1F7DF91CF910895CF93DF93EC01FC018491882361F0DDDF219686
:2005A000FE018491882331F0D7DF2196FE0184918823A1F7DF91CF9108951F93182F82951A
:2005C0008F70E82FFF27E65BFF4F8491C5DFE12FFF27EF70F070E65BFF4F8491BDDF1F91B2
:2005E00008958091C00099278078907008958091C0008823E4F78091C60099270895F9991B
:20060000FECF92BD81BDF89A80B599270895F999FECF1FBA92BD81BD60BD0FB6F894FA9A95
:20062000F99A0FBE08951092330110923401089520E0A3E3B1E091E08D918227E82FFF27E7
:20064000E55AFF4F8491282F915097FFF5CF8093350127E033E043E050E063E371E080E1B8
:2006600090E066D308952FEF32E043E050E060E170E083E391E039D320E0A3E3B1E091E0B5
:200680008D918227E82FFF27E55AFF4F8491282F915097FFF5CF80913501821719F0C3DF97
:2006A000C7DF0895809133018823D9F3BCDFC0DFF8CFFC01608B178616860895DC0183E537
:2006C0008C93FD0114828181E82FFF27E55AFF4F84919927FD01848392818927E82FFF27C1
:2006E000E55AFF4F84919927FD01848393818927E82FFF27E55AFF4F8491FD01848385E482
:20070000858308950F931F93CF93DF93EC018C01085F1F4FC801D2DFEA81FB810484F5855A
:20072000E02D309731F046E050E0B801888199810995DF91CF911F910F910895AF92BF92A5
:20074000DF92EF92FF920F931F93CF93DF935C01062FD42E10E0EC012E81121698F548E0F1
:20076000E42EF12CE80EF91E03C01F5F121750F5812F9927880F991F880F991FE501EC812D
:20078000FD81E80FF91F8081833079F78181801761F7DD2089F0E701198289E38A83828142
:2007A0009381892F99278B83C501ACDFF50126811F5F1217E8F206C0E701D98288E38A83AF
:2007C0008281F1CFDF91CF911F910F91FF90EF90DF90BF90AF900895DF92EF92FF920F9369
:2007E0001F93CF93DF93EC018E859F85AA27BB27FC010B9708F03DC2E65EFF4F099463353F
:2008000009F411C1643509F034C281E090E09F878E8768872EC2862F9927AA27BB27B82F87
:20082000AA27992788274A895B896C897D89482B592B6A2B7B2B4A8B5B8B6C8B7D8B9985BC
:200840008889981709F4F1C08B8581508B879F5F9987882309F0DDC085E090E09F878E87C8
:2008600008C2862F9927AA27BB27AC01332722278A899B89AC89BD89822B932BA42BB52B6A
:200880008A8B9B8BAC8BBD8B8AE090E09F878E87F0C1862F9927AA27BB272227382F492F88
:2008A0005A2F8A899B89AC89BD89822B932BA42BB52B8A8B9B8BAC8BBD8B89E090E09F872A
:2008C0008E87D7C1862F9927AA27BB278A8B9B8BAC8BBD8B88E090E09F878E87CAC16B87F9
:2008E000662309F096C01F861E86C3C188858335D1F76534C1F799898C859817A1F78E016C
:20090000085F1F4FF80191819F3F19F08889981751F7992309F09BC0AA81BB81FD01868588
:200920009785892B09F493C0F8018281803309F4B4C0883309F4B1C0893309F4AEC0803572
:2009400009F4ABC0882309F085C0F8016381182F2E81121640F6E62EFF24812F9927880FD7
:20096000991F880F991FEC81FD81E80FF91F80818823A9F46181C701062E02C09595879547
:200980000A94E2F780FF0BC082818383EA81FB810190F081E02D309709F040C02E811F5FAA
:2009A0001217D8F21F861E8664C189898627E82FFF27E55AFF4F8491898B6B8784E090E05E
:2009C0009F878E8756C16C8785E090E047CF89898627E82FFF27E55AFF4F8491898B698745
:2009E00082E090E09F878E8744C189898627E82FFF27E55AFF4F8491898B6A87888583357D
:200A000009F1843509F035C186E090E09F878E8730C187E090E09F878E872BC141E088810A
:200A200099810995BBCF198AF0CEEA81FB810084F185E02D309709F407CF888199810995CA
:200A4000998502CF83E090E09F878E8712C1F801828178CF813009F47BC090EEF92EF80EEF
:200A6000FFE0FF15B0F1F801038110E02E81121608F039CF812F9927880F991F880F991F90
:200A8000EC81FD81E80FF91F8081813089F01F5F121780F31F861E86ECC0FD0126853785BD
:200AA000B80188819981F90109951F861E86E1C081818F1561F7EA81FB810280F381E02DF0
:200AC000309729F3402F6F2D8881998109952E81DECF803309F4A4C0883309F49FC0893324
:200AE00009F494C0803409F481C0803509F474C0F0EAFF2EF80EF1E0FF1508F45CC0F801CA
:200B0000038110E02E81121628F0EDCE1F5F121708F0E9CE812F9927880F991F880F991F53
:200B2000EC81FD81E80FF91F8081843079F781818F1561F7EA81FB810480F581E02D3097E3
:200B400029F3402F6F2D8881998109952E81DECFF801638110E02E81121608F0C4CEE62E0F
:200B6000FF24812F9927880F991F880F991FEC81FD81E80FF91F4081442399F46181C701EB
:200B8000062E02C0959587950A94E2F780FF09C04383EA81FB810190F081E02D309739F4AA
:200BA0002E811F5F1217E8F21F861E8662C0888199810995F5CF803809F095CEEA81FB811A
:200BC0000284F385E02D309709F48DCE8881998109951F861E864DC0F801118282838F8133
:200BE0008383CE018FDD1F861E8643C0F8016381EA81FB810680F781E02D309709F473CE94
:200C00008881998109951F861E8633C041E0F8016381CE0193DD1F861E862BC040E0F7CF80
:200C2000F801E380FF242E81121608F05CCED82E04C0F394F21608F056CE8F2D9927880FB4
:200C4000991F880F991FAC81BD81A80FB91F8C91823079F7FD0181818E1559F7F8011182D5
:200C6000D282FD018281F8018383CE014BDD2E81E0CFDF91CF911F910F91FF90EF90DF902E
:200C800008951F93CF93DF93EC0110E02E81121640F5812F9927880F991F880F991FAC810D
:200CA000BD81A80FB91F8C91882381F4FD014381442361F041504383442339F4EA81FB81DE
:200CC000208131812115310529F42E811F5F121700F307C0FD01618188819981F90109958D
:200CE000F4CFDF91CF911F910895A0E0B0E0EAE7F6E068C06C017B01EA01590121978FEFD1
:200D0000CF3FD80789F086010894C11CD11CC7010894E11CF11CF5010995F80180832197CA
:200D2000FFEFCF3FDF0779F7EAE0CDB7DEB766C0A0E0B0E0EDE9F6E047C08C017B01EA01A1
:200D4000690121978FEFCF3FD80771F0F70121917F01C8010F5F1F4F622FF60109952197F8
:200D6000FFEFCF3FDF0791F7E8E0CDB7DEB748C0A1E21A2EAA1BBB1BFD010DC0AA1FBB1F4C
:200D8000EE1FFF1FA217B307E407F50720F0A21BB30BE40BF50B661F771F881F991F1A942C
:200DA00069F760957095809590959B01AC01BD01CF0108952F923F924F925F926F927F92B5
:200DC0008F929F92AF92BF92CF92DF92EF92FF920F931F93CF93DF93CDB7DEB7CA1BDB0B3F
:200DE0000FB6F894DEBF0FBECDBF09942A88398848885F846E847D848C849B84AA84B9845C
:200E0000C884DF80EE80FD800C811B81AA81B981CE0FD11D0FB6F894DEBF0FBECDBFED01AE
:200E20000895FFCF0000160100000000000000000000000000000000000000000000000030
:0A0E40000000CA00E00000000000FE
:00000001FF
